:03000000020646AF
:0C064600787FE4F6D8FD75814302035F65
:10047200202020496F54202042617365642020208F
:100482000020456E65726779204D65746572202083
:100492002000446576656C6F7065642042792E2E6B
:1004A2002E2E004172696E64616D204461732020BA
:1004B2002020200052616A6172736869204E617463
:1004C20068202020004269746F70616E204E617452
:1004D20068202020200053686164616162204168C5
:1004E2006D6564202020004145432D45452D323065
:1004F2003139202020202000554E4954203A005006
:0A050200756C73653A00253464003F
:0A05D000C2818F90D2827F027E006C
:1005DA00D3EF9400EE6480948040147DFB7C04ED9C
:0F05EA001D70011CED4C70F7EF1F70E41E80E1D7
:0105F90022DF
:090635007F647E001205DA7FC02B
:08063E00C2801205D0C2822225
:08065200D2801205D0C2822201
:100621007F3812063E7F0612063E7F0C12063E7F81
:040631000102063E7E
:0B059A007FC612063E7B007A00792627
:0605A5008B308A3189321F
:1005AB00E4F533F534AB30AA31A932853482853387
:1005BB008312050CFF600D1206520534E53470E50D
:0405CB00053380E193
:0105CF002209
:10035F00E4F522F523F524F5251206217BFF7A0417
:10036F0079721205A57FC012063E7BFF7A0479834E
:10037F001205A57F647E001205DA7F0112063E7B0F
:10038F00FF7A0479941205A51206357BFF7A04795A
:10039F00A51205A51206357BFF7A0479B61205A5BD
:1003AF001206357BFF7A0479C71205A51206357B35
:1003BF00FF7A0479D81205A51206357BFF7A0479E6
:1003CF00E91205A57F647E001205DA7F0112063E51
:1003DF007BFF7A0479FA1205A57FC012063E7BFFD8
:1003EF007A0579011205A520B2FD0523E5237002D8
:1003FF0005227533FF753405753508852236F537B7
:10040F007B007A00792612005F12059A30B2FDC385
:10041F00E523940AE5226480948040CB0525E525E9
:10042F0070020524E4F522F5237533FF7534057545
:10043F003508852436852537FB7A00792612005F2B
:10044F007F8612059C7533FF753405753508852237
:10045F00368523377B007A00792612005F12059AC2
:03046F000203F68F
:10050C00BB010CE58229F582E5833AF583E02250A4
:10051C0006E92582F8E622BBFE06E92582F8E222EE
:0D052C00E58229F582E5833AF583E4932208
:10000300E53F2433F8E6053F2278303007027833A2
:10001300E475F0011205640205392000EB7F2ED24E
:10002300008018EF540F2490D43440D4FF30040BD5
:10003300EF24BFB41A0050032461FFE540600215AA
:10004300400543E5437002054230070D7830E475FF
:10005300F001120564EF0205520205FA7403D20798
:100063008003E4C207F53F8B308A318932E4F540DF
:10007300F542F543E54060077F2012003E80F575A9
:1000830041FFC201C200C202C203C205C206C208C6
:1000930012000CFF700D3007057F0012004FAF43B5
:1000A300AE4222B4255FC2D5C20412000CFF24D095
:1000B300B40A00501A75F00A784030D50508B6FF27
:1000C3000106C6A426F620D5047002D20380D924E3
:1000D300CFB41A00EF5004C2E5D20402024FD2019A
:1000E30080C6D20080C0D20280BCD2D580BAD205ED
:1000F30080B47F2012003E2002077401B540004007
:10010300F1120003FF12003E020077D208D20680EC
:1001130095120003FB120003FA120003F94A4B7015
:100123000679207A037BFF20022EE540602A7E00B9
:100133008E8275830012050C60060EEE654170F029
:10014300C2D5EBC0E0EAC0E0E9C0E0EE120296D00F
:10015300E0F9D0E0FAD0E0FB120539FF60AAEBC06A
:10016300E0EAC0E0E9C0E012003ED0E02401F9D0AB
:10017300E03400FAD0E0FBE5410460DCD541D980EE
:10018300877BFF7A027992D202809C791080027970
:1001930008C206C2088008D2D5790A8004790AC247
:1001A300D5E541047002F541E4FAFDFEFF120003B8
:1001B300FC7B08200113120003FD7B1030000A12A0
:1001C3000003FE120003FF7B20EC3382D592D5504F
:1001D30013C3E43000069FFFE49EFEE42001039D69
:1001E300FDE49CFCE4CBF8C201EC700CCFCECDCC8B
:1001F300E824F8F870F38017C3EF33FFEE33FEED16
:1002030033FDEC33FCEB33FB994002FB0FD8E9EBF6
:10021300300105F8D0E0C448B201C0E00AEC4D4E0D
:100223004F78207B0070C2EAB5410040BCC0E012A9
:100233000298D0F0D0E0200104C4C0E0C4B201C0F1
:10024300F0120027D0F0D5F0EB020077120574010D
:100253001453018E5800E54C00E14201924F019A7C
:0F02630044019A4900FA4301A0550184460184E1
:100272004501844703405000E92D00ED2E01102B6B
:1002820000F123010E2003292A00A94800000108D9
:100292003F3F3F00790AA2D5200314300509B91067
:1002A200020404B9080104A2D52006025001042068
:1002B20002689202B540005034C0E07F203003193A
:1002C2007F30A20272067205500F1202EFC202C202
:1002D20006C205C2087F30800F300503E9C0E01274
:1002E200003E300503D0E0F9D0E0B540CC30051730
:1002F2007F30B9100C12003E7F583004077F78809F
:1003020003B9080312003E3002057F2D02003E7F32
:10031200202008F87F2B2006F322920280CF286E3D
:10032200756C6C2900D2011200033001F8C2017809
:100332004030D50108F60200A92D50434958120059
:10034200032403B405004001E490033B9312002F01
:0D035200743A12002FD20375400402018E90
:10053900BB010689828A83E0225002E722BBFE02C0
:09054900E32289828A83E49322F3
:10055200BB010689828A83F0225002F722BBFE0188
:02056200F32282
:10056400FAE6FB0808E6F925F0F618E6CA3AF62298
:10057400D083D082F8E4937012740193700DA3A316
:1005840093F8740193F5828883E47374029368602A
:06059400EFA3A3A380DF2A
:1005FA00EFB40A07740D120605740A309811A89907
:10060A00B8130CC2983098FDA899C298B811F63060
:07061A0099FDC299F5992238
:00000001FF
