:0300000002063FB6
:0C063F00787FE4F6D8FD75816A0206861B
:10038E0041540041542B43574D4F44453D3100419C
:10039E00542B4349504D55583D310041542B434940
:1003AE005053544152543D342C00544350002C3879
:1003BE00300041542B43495053454E443D342C009C
:1003CE00504F535420002F616563696F74656D65DE
:1003DE007465722E636F6D2F7570646174652E7007
:1003EE0068703F4D49443D4D30303126554E49548D
:1003FE003D0020485454502F312E3000486F7374F6
:10040E003A20004163636570743A202A2F2A004314
:10041E006F6E74656E742D547970653A20617070CC
:10042E006C69636174696F6E2F782D7777772D669F
:10043E006F726D2D75726C656E636F6465640053BB
:10044E0045525645520030005245534554205245B0
:10045E004144494E4700496F542042617365640020
:10046E00456E65726779204D657465720047726FCF
:10047E007570204D656D62657273004172696E64B0
:10048E00616D2044617320202020200052616A613A
:10049E0072736869204E6174680920004269746F36
:1004AE0070616E204E6174682020202000526970A9
:1004BE00756E6A6F79204B6173687961700053684D
:1004CE0061646161622041686D6564202020004195
:1004DE004543202D2045452D203230313920200036
:1004EE005374617274696E672E2E2E2E2E2E2E0070
:0E04FE0050756C73653A00556E6974203A00B3
:100A0B000228005E022F002C02310000022200009F
:0C0A1B000224000002260000022D000052
:100A2800120AB17FA012094B120A38E4FF12094BCF
:070A3800D2A00000C2A022C1
:0B0AB100D2A1D2A00000C2A1C2A0226E
:0B0ABC00C2A1D2A00000D2A1C2A02263
:10094B00E4FBFAEFC4131313540124FF92A1EF2518
:10095B00E0FFD2A00000C2A00BBB00010AEB6408B1
:09096B004A70E0A2A19200C2A1B1
:010974002260
:10099F00D2A1E4F521FFFEE52125E0F521D2A0004B
:1009AF000030A1020521C2A00FBF00010EEF6408A5
:0709BF004E70E4C2A1AF215C
:0109C600220E
:1008B3008B528A538954120A28E4F534AB52AA5353
:1008C300A954853482758300120006FF600A120959
:1008D3004B120A38053480E47F2A12094B120A3876
:0608E300120ABC020A38F3
:06078D008B528A538954CF
:10079300120A28120AB17FA112094B120A38E4FD8A
:1007A300FC12099F8F55AB52AA53A9548D828C8397
:1007B300E555120033120A38E555642A600B0DBD66
:1007C30000010CED64644C70D8AB52AA53A954AE2B
:1007D30004AF058F828E83E4120033120ABC020A2F
:0107E30038DD
:0607E4008B528A53895478
:1007EA00E4F555F556F534AB52AA53A9548534822B
:1007FA00758300120006FF60233395E0FEEF24D0D4
:10080A00FBEE34FFFAAE55AF567C007D0A12005556
:10081A00EF2BF556EE3AF555053480CBAE55AF566B
:01082A0022AB
:0409C7007F647E00CB
:1009CB00D3EF9400EE6480948040147DFB7C04EDA7
:0F09DB001D70011CED4C70F7EF1F70E41E80E1E2
:0109EA0022EA
:100A3F00D297C280D28130970DC2827F027E001280
:070A4F0009CBD28280F022E6
:0909EB007F647E001209CB7FC07D
:1009F400AB07120A3FC280C2818B90D2827F017EF4
:070A0400001209CBC282229F
:100A5600AB07120A3FD280C2818B90D2827F017E81
:070A6600001209CBC282223D
:100A82007F381209F47F061209F47F0C1209F47FF1
:040A9200010209F460
:0608E9007B007A00794C4F
:0608EF008B528A5389546C
:1008F500E4F555F556AB52AA53A95485568285554C
:1009050083120006FF600D120A560556E55670E57E
:04091500055580E123
:0109190022BB
:0C0AA500758920759850758DFDD28E2249
:070A96007F0D120A9D7F0A8B
:080A9D008F993099FDC29922E6
:060975007B007A007936D8
:06097B008B5C8A5D895EC1
:10098100E4FDFCAB5CAA5DA95E8D828C831200063E
:0D099100FF600A120A9D0DBD00010C80E6FA
:01099E002236
:10050C007FC61209F47B007A00794C756100756224
:05051C0005AD25AC2433
:0A0521008B5C8A5D895EAB05AA04BD
:10052B00E4F569F56AD3EB9400EA64809480500398
:10053B000205E1D3EB9400EA64809480402E7C00AA
:10054B007D0AAF03AE02120067ED2430FF056AE5AA
:10055B006A70020569142463F8A6077C007D0AAF54
:10056B0003AE02120067AA06AB0780C7C3E56A9504
:10057B0062E5616480F8E5696480985010056AE56E
:10058B006A70020569142463F8762080DF74632592
:10059B006AF8E4F6E56A156A70021569E4FFFEC3B2
:1005AB00E5696480948040227463256AF8E6AB5C4D
:1005BB00AA5DA95E8F828E83120033E56A156A707D
:1005CB000215690FBF00010E80D5AB5CAA5DA95E59
:1005DB008F828E838059E4F569F56AE56224FFFF0B
:1005EB00E56134FFFEC3E56A9FEE6480F8E569645C
:1005FB008098501BAB5CAA5DA95E856A8285698376
:10060B007420120033056AE56A70D0056980CCABA3
:10061B005CAA5DA95E056AE56AAE6970020569149C
:10062B00F5828E837430120033856A82856983E488
:03063B0012003377
:01063E002299
:10091A007BFF7A03798E12097B120A961209C77B2A
:10092A00FF7A03799112097B120A961209C77BFF93
:10093A007A03799D12097B120A967F647E00020966
:01094A00CBE1
:100872007BFF7A0379A912097B7F22120A9D7BFFF3
:100882007A0379B812097B7F22120A9D7F2C120A01
:100892009D7F22120A9D1209757F22120A9D7BFFFB
:1008A2007A0379BC12097B120A967F1E7E00020926
:0108B200CB7A
:10082B00E4F556F557F558F559F55AF55B7BFF7A14
:10083B000379C012097BE5292530F532E528352FE0
:10084B00F5317B007A007952E4F561F562AD32AC9B
:10085B00311205217B007A00795212097B120A961C
:07086B007F647E000209CB4F
:1006CB007BFF7A0379CE12097B7BFF7A0379D412F5
:1006DB00097B7B007A00794712097B7BFF7A0479CF
:1006EB000012097B120A967E001209CB7BFF7A045B
:1006FB00790A12097B120975120A967E001209CB30
:10070B007BFF7A04791112097B120A967E0012097B
:10071B00CB7BFF7A04791D12097B120A967E00129D
:0A072B0009CB120A967E000209CBEA
:03000300020735BC
:10073500C0E0C0D075D000C003C004C005C006C06D
:10074500070523E52370020522C2AF7F0A7E00124A
:1007550009CBD2AFC3E523940AE522648094804097
:10076500187F8A1209F47F30120A56752200752304
:10077500000525E52570020524D007D006D005D053
:0807850004D003D0D0D0E03213
:1001F40078367C007D007BFF7A04794D1201691208
:100204000AA5D2A8D288D2AF120A8220A2157BFFF7
:100214007A0479541208B37BFF7A0479561208EFF2
:100224001209C77F011209F47BFF7A04796412086A
:10023400EF7FC01209F47BFF7A04796E1208EF1283
:1002440009C77F011209F47BFF7A04797B1208EF56
:100254001209EB7BFF7A0479891208EF1209EB7B10
:10026400FF7A04799A1208EF1209EB7BFF7A04797A
:10027400AA1208EF1209EB7BFF7A0479BB1208EF8C
:100284001209EB7BFF7A0479CC1208EF1209EB7B9D
:10029400FF7A0479DD1208EF1209C77F011209F40D
:1002A4007BFF7A0479EE1208EF12091A1209C77F4C
:1002B400011209F47BFF7A0479FE1208EF7FC01261
:1002C40009F47BFF7A0579051208EF7F861209F499
:1002D4007B007A00794C756100756205AD23AC2210
:1002E4001205211208E97B007A00794C12078D7BF4
:1002F400007A00794C1207E48E248F2512050C1223
:1003040008E9E52365277004E522652660217F86D8
:100314001209F47B007A00794C756100756205ADB1
:1003240023AC221205211208E9852226852327E51C
:1003340025652E7004E524652D60C712050C12088E
:10034400E97B007A007947E4F561F56212051D7BCB
:10035400007A007947120A6DEF242BF530E43EF55C
:100364002F1208727F0A7E001209CB12082B7F0A13
:100374007E001209CB1206CB85242D85252E7B0009
:0A0384007A0079471208B30203065D
:10064B000201F4E493A3F8E493A34003F68001F2D0
:10065B0008DFF48029E493A3F85407240CC8C333B0
:10066B00C4540F4420C8834004F456800146F6DF7F
:10067B00E4800B0102040810204080900A0BE47EFA
:10068B00019360BCA3FF543F30E509541FFEE49374
:10069B00A360010ECF54C025E060A840B8E493A33B
:1006AB00FAE493A3F8E493A3C8C582C8CAC583CA66
:1006BB00F0A3C8C582C8CAC583CADFE9DEE780BE1E
:010A270000CE
:10000600BB010CE58229F582E5833AF583E02250AF
:1000160006E92582F8E622BBFE06E92582F8E222F9
:0D002600E58229F582E5833AF583E4932213
:10003300F8BB010DE58229F582E5833AF583E8F003
:10004300225006E92582C8F622BBFE05E92582C8AF
:02005300F22297
:10005500EF8DF0A4A8F0CF8CF0A428CE8DF0A42EBF
:02006500FE2279
:10006700C2D5EC30E709B2D5E4C39DFDE49CFCEEB4
:1000770030E715B2D5E4C39FFFE49EFE12019FC38C
:10008700E49DFDE49CFC800312019F30D507C3E487
:060097009FFFE49EFE2223
:10009D00E709F60870FA8046E709F20870FA803E23
:1000AD0088828C83E709F0A370FA807EE309F60855
:1000BD0070FA8076E309F20870FA806E88828C837C
:1000CD00E309F0A370FA806289828A83E0A3F608BF
:1000DD0070FA805689828A83E0A3F20870FA804A0A
:1000ED0080D280FA80C680D4806580F28031801005
:1000FD0080A680EA809A80A880DA80E280CA80316A
:10010D0089828A83ECFAE493A3C8C582C8CCC583DF
:10011D00CCF0A3C8C582C8CCC583CC70E9800D894D
:10012D00828A83E493A3F60870F9ECFAA9F0EDFB4B
:10013D002289828A83ECFAE0A3C8C582C8CCC58324
:10014D00CCF0A3C8C582C8CCC583CC70EA80DD894C
:10015D00828A83E493A3F20870F980CE88F0ED24AF
:10016D0002B4040050C4F582EB2402B4040050BA6A
:09017D0023234582239000ED7359
:100A6D00E4FFFE120186600C0FEF70010E09E970B4
:050A7D00F20A80EF22E7
:10018600BB010689828A83E0225002E722BBFE0277
:09019600E32289828A83E49322AA
:10019F00BC000BBE0029EF8DF084FFADF022E4CC44
:1001AF00F875F008EF2FFFEE33FEEC33FCEE9DEC0D
:1001BF00984005FCEE9DFE0FD5F0E9E4CEFD22ED53
:1001CF00F8F5F0EE8420D21CFEADF075F008EF2F9D
:1001DF00FFED33FD4007985006D5F0F222C398FD8E
:0501EF000FD5F0EA222B
:00000001FF
