:030000000201D02A
:0C01D000787FE4F6D8FD75810C020099E0
:10000300202020496F542020426173656420202002
:100013000020456E65726779204D657465722020F6
:100023002000446576656C6F7065642042792E2EDE
:100033002E2E004172696E64616D2044617320202D
:100043002020200052616A6172736869204E6174D6
:1000530068202020004269746F70616E204E6174C5
:100063006820202020005368616461616220416838
:100073006D6564202020004145432D45452D3230D8
:100083003139202020202000554E4954203A005079
:06009300756C73653A0074
:0A018100C2818F90D2827F027E00BF
:10018B00D3EF9400EE6480948040147DFB7C04EDEF
:0F019B001D70011CED4C70F7EF1F70E41E80E12A
:0101AA002232
:0901BF007F647E0012018B7FC0F9
:0801C800C280120181C28222F3
:0801DC00D280120181C28222CF
:1001AB007F381201C87F061201C87F0C1201C87F6D
:0401BB00010201C874
:060156008B088A09890AEA
:10015C00E4F50BF50CAB08AA09A90A850C82850BF2
:10016C0083120129FF600D1201DC050CE50C70E512
:04017C00050B80E10E
:01018000225C
:100099001201AB7BFF7A0079031201567FC012016E
:1000A900C87BFF7A0079141201567F647E00120121
:1000B9008B7F011201C87BFF7A0079251201561244
:1000C90001BF7BFF7A0079361201561201BF7BFF0F
:1000D9007A0079471201561201BF7BFF7A007958DD
:1000E9001201561201BF7BFF7A007969120156127B
:1000F90001BF7BFF7A00797A1201567F647E001274
:10010900018B7F011201C87BFF7A00798B1201569E
:100119007FC01201C87BFF7A00799212015680FED6
:10012900BB010CE58229F582E5833AF583E022508B
:1001390006E92582F8E622BBFE06E92582F8E222D5
:0D014900E58229F582E5833AF583E49322EF
:00000001FF
